{
  "contractName": "DanniNFT",
  "abi": [
    {
      "inputs": [],
      "stateMutability": "nonpayable",
      "type": "constructor"
    },
    {
      "anonymous": false,
      "inputs": [
        {
          "indexed": true,
          "internalType": "address",
          "name": "owner",
          "type": "address"
        },
        {
          "indexed": true,
          "internalType": "address",
          "name": "approved",
          "type": "address"
        },
        {
          "indexed": true,
          "internalType": "uint256",
          "name": "tokenId",
          "type": "uint256"
        }
      ],
      "name": "Approval",
      "type": "event"
    },
    {
      "anonymous": false,
      "inputs": [
        {
          "indexed": true,
          "internalType": "address",
          "name": "owner",
          "type": "address"
        },
        {
          "indexed": true,
          "internalType": "address",
          "name": "operator",
          "type": "address"
        },
        {
          "indexed": false,
          "internalType": "bool",
          "name": "approved",
          "type": "bool"
        }
      ],
      "name": "ApprovalForAll",
      "type": "event"
    },
    {
      "anonymous": false,
      "inputs": [
        {
          "indexed": true,
          "internalType": "address",
          "name": "from",
          "type": "address"
        },
        {
          "indexed": true,
          "internalType": "address",
          "name": "to",
          "type": "address"
        },
        {
          "indexed": true,
          "internalType": "uint256",
          "name": "tokenId",
          "type": "uint256"
        }
      ],
      "name": "Transfer",
      "type": "event"
    },
    {
      "inputs": [
        {
          "internalType": "address",
          "name": "to",
          "type": "address"
        },
        {
          "internalType": "uint256",
          "name": "tokenId",
          "type": "uint256"
        }
      ],
      "name": "approve",
      "outputs": [],
      "stateMutability": "nonpayable",
      "type": "function"
    },
    {
      "inputs": [
        {
          "internalType": "address",
          "name": "owner",
          "type": "address"
        }
      ],
      "name": "balanceOf",
      "outputs": [
        {
          "internalType": "uint256",
          "name": "",
          "type": "uint256"
        }
      ],
      "stateMutability": "view",
      "type": "function",
      "constant": true
    },
    {
      "inputs": [
        {
          "internalType": "uint256",
          "name": "tokenId",
          "type": "uint256"
        }
      ],
      "name": "getApproved",
      "outputs": [
        {
          "internalType": "address",
          "name": "",
          "type": "address"
        }
      ],
      "stateMutability": "view",
      "type": "function",
      "constant": true
    },
    {
      "inputs": [
        {
          "internalType": "address",
          "name": "owner",
          "type": "address"
        },
        {
          "internalType": "address",
          "name": "operator",
          "type": "address"
        }
      ],
      "name": "isApprovedForAll",
      "outputs": [
        {
          "internalType": "bool",
          "name": "",
          "type": "bool"
        }
      ],
      "stateMutability": "view",
      "type": "function",
      "constant": true
    },
    {
      "inputs": [],
      "name": "name",
      "outputs": [
        {
          "internalType": "string",
          "name": "",
          "type": "string"
        }
      ],
      "stateMutability": "view",
      "type": "function",
      "constant": true
    },
    {
      "inputs": [
        {
          "internalType": "uint256",
          "name": "tokenId",
          "type": "uint256"
        }
      ],
      "name": "ownerOf",
      "outputs": [
        {
          "internalType": "address",
          "name": "",
          "type": "address"
        }
      ],
      "stateMutability": "view",
      "type": "function",
      "constant": true
    },
    {
      "inputs": [
        {
          "internalType": "address",
          "name": "from",
          "type": "address"
        },
        {
          "internalType": "address",
          "name": "to",
          "type": "address"
        },
        {
          "internalType": "uint256",
          "name": "tokenId",
          "type": "uint256"
        }
      ],
      "name": "safeTransferFrom",
      "outputs": [],
      "stateMutability": "nonpayable",
      "type": "function"
    },
    {
      "inputs": [
        {
          "internalType": "address",
          "name": "from",
          "type": "address"
        },
        {
          "internalType": "address",
          "name": "to",
          "type": "address"
        },
        {
          "internalType": "uint256",
          "name": "tokenId",
          "type": "uint256"
        },
        {
          "internalType": "bytes",
          "name": "_data",
          "type": "bytes"
        }
      ],
      "name": "safeTransferFrom",
      "outputs": [],
      "stateMutability": "nonpayable",
      "type": "function"
    },
    {
      "inputs": [
        {
          "internalType": "address",
          "name": "operator",
          "type": "address"
        },
        {
          "internalType": "bool",
          "name": "approved",
          "type": "bool"
        }
      ],
      "name": "setApprovalForAll",
      "outputs": [],
      "stateMutability": "nonpayable",
      "type": "function"
    },
    {
      "inputs": [
        {
          "internalType": "bytes4",
          "name": "interfaceId",
          "type": "bytes4"
        }
      ],
      "name": "supportsInterface",
      "outputs": [
        {
          "internalType": "bool",
          "name": "",
          "type": "bool"
        }
      ],
      "stateMutability": "view",
      "type": "function",
      "constant": true
    },
    {
      "inputs": [],
      "name": "symbol",
      "outputs": [
        {
          "internalType": "string",
          "name": "",
          "type": "string"
        }
      ],
      "stateMutability": "view",
      "type": "function",
      "constant": true
    },
    {
      "inputs": [
        {
          "internalType": "uint256",
          "name": "tokenId",
          "type": "uint256"
        }
      ],
      "name": "tokenURI",
      "outputs": [
        {
          "internalType": "string",
          "name": "",
          "type": "string"
        }
      ],
      "stateMutability": "view",
      "type": "function",
      "constant": true
    },
    {
      "inputs": [
        {
          "internalType": "address",
          "name": "from",
          "type": "address"
        },
        {
          "internalType": "address",
          "name": "to",
          "type": "address"
        },
        {
          "internalType": "uint256",
          "name": "tokenId",
          "type": "uint256"
        }
      ],
      "name": "transferFrom",
      "outputs": [],
      "stateMutability": "nonpayable",
      "type": "function"
    },
    {
      "inputs": [],
      "name": "mint",
      "outputs": [
        {
          "internalType": "uint256",
          "name": "",
          "type": "uint256"
        }
      ],
      "stateMutability": "nonpayable",
      "type": "function"
    }
  ],
  "bytecode": "0x608060405260006006553480156200001657600080fd5b506040518060400160405280600881526020017f44616e6e694e46540000000000000000000000000000000000000000000000008152506040518060400160405280600481526020017f444e46540000000000000000000000000000000000000000000000000000000081525081600090805190602001906200009b929190620000bd565b508060019080519060200190620000b4929190620000bd565b505050620001d2565b828054620000cb906200019c565b90600052602060002090601f016020900481019282620000ef57600085556200013b565b82601f106200010a57805160ff19168380011785556200013b565b828001600101855582156200013b579182015b828111156200013a5782518255916020019190600101906200011d565b5b5090506200014a91906200014e565b5090565b5b80821115620001695760008160009055506001016200014f565b5090565b7f4e487b7100000000000000000000000000000000000000000000000000000000600052602260045260246000fd5b60006002820490506001821680620001b557607f821691505b60208210811415620001cc57620001cb6200016d565b5b50919050565b61276c80620001e26000396000f3fe608060405234801561001057600080fd5b5060043610610107576000357c0100000000000000000000000000000000000000000000000000000000900480636352211e116100a9578063a22cb46511610083578063a22cb4651461027a578063b88d4fde14610296578063c87b56dd146102b2578063e985e9c5146102e257610107565b80636352211e146101fc57806370a082311461022c57806395d89b411461025c57610107565b8063095ea7b3116100e5578063095ea7b31461018a5780631249c58b146101a657806323b872dd146101c457806342842e0e146101e057610107565b806301ffc9a71461010c57806306fdde031461013c578063081812fc1461015a575b600080fd5b610126600480360381019061012191906116ef565b610312565b6040516101339190611737565b60405180910390f35b6101446103f4565b60405161015191906117eb565b60405180910390f35b610174600480360381019061016f9190611843565b610486565b60405161018191906118b1565b60405180910390f35b6101a4600480360381019061019f91906118f8565b61050b565b005b6101ae610623565b6040516101bb9190611947565b60405180910390f35b6101de60048036038101906101d99190611962565b610651565b005b6101fa60048036038101906101f59190611962565b6106b1565b005b61021660048036038101906102119190611843565b6106d1565b60405161022391906118b1565b60405180910390f35b610246600480360381019061024191906119b5565b610783565b6040516102539190611947565b60405180910390f35b61026461083b565b60405161027191906117eb565b60405180910390f35b610294600480360381019061028f9190611a0e565b6108cd565b005b6102b060048036038101906102ab9190611b83565b6108e3565b005b6102cc60048036038101906102c79190611843565b610945565b6040516102d991906117eb565b60405180910390f35b6102fc60048036038101906102f79190611c06565b6109ec565b6040516103099190611737565b60405180910390f35b60007f80ac58cd000000000000000000000000000000000000000000000000000000007bffffffffffffffffffffffffffffffffffffffffffffffffffffffff1916827bffffffffffffffffffffffffffffffffffffffffffffffffffffffff191614806103dd57507f5b5e139f000000000000000000000000000000000000000000000000000000007bffffffffffffffffffffffffffffffffffffffffffffffffffffffff1916827bffffffffffffffffffffffffffffffffffffffffffffffffffffffff1916145b806103ed57506103ec82610a80565b5b9050919050565b60606000805461040390611c75565b80601f016020809104026020016040519081016040528092919081815260200182805461042f90611c75565b801561047c5780601f106104515761010080835404028352916020019161047c565b820191906000526020600020905b81548152906001019060200180831161045f57829003601f168201915b5050505050905090565b600061049182610aea565b6104d0576040517f08c379a00000000000000000000000000000000000000000000000000000000081526004016104c790611d19565b60405180910390fd5b6004600083815260200190815260200160002060009054906101000a900473ffffffffffffffffffffffffffffffffffffffff169050919050565b6000610516826106d1565b90508073ffffffffffffffffffffffffffffffffffffffff168373ffffffffffffffffffffffffffffffffffffffff161415610587576040517f08c379a000000000000000000000000000000000000000000000000000000000815260040161057e90611dab565b60405180910390fd5b8073ffffffffffffffffffffffffffffffffffffffff166105a6610b56565b73ffffffffffffffffffffffffffffffffffffffff1614806105d557506105d4816105cf610b56565b6109ec565b5b610614576040517f08c379a000000000000000000000000000000000000000000000000000000000815260040161060b90611e3d565b60405180910390fd5b61061e8383610b5e565b505050565b60006006600081548092919061063890611e8c565b919050555061064933600654610c17565b600654905090565b61066261065c610b56565b82610df1565b6106a1576040517f08c379a000000000000000000000000000000000000000000000000000000000815260040161069890611f47565b60405180910390fd5b6106ac838383610ecf565b505050565b6106cc838383604051806020016040528060008152506108e3565b505050565b6000806002600084815260200190815260200160002060009054906101000a900473ffffffffffffffffffffffffffffffffffffffff169050600073ffffffffffffffffffffffffffffffffffffffff168173ffffffffffffffffffffffffffffffffffffffff16141561077a576040517f08c379a000000000000000000000000000000000000000000000000000000000815260040161077190611fd9565b60405180910390fd5b80915050919050565b60008073ffffffffffffffffffffffffffffffffffffffff168273ffffffffffffffffffffffffffffffffffffffff1614156107f4576040517f08c379a00000000000000000000000000000000000000000000000000000000081526004016107eb9061206b565b60405180910390fd5b600360008373ffffffffffffffffffffffffffffffffffffffff1673ffffffffffffffffffffffffffffffffffffffff168152602001908152602001600020549050919050565b60606001805461084a90611c75565b80601f016020809104026020016040519081016040528092919081815260200182805461087690611c75565b80156108c35780601f10610898576101008083540402835291602001916108c3565b820191906000526020600020905b8154815290600101906020018083116108a657829003601f168201915b5050505050905090565b6108df6108d8610b56565b8383611136565b5050565b6108f46108ee610b56565b83610df1565b610933576040517f08c379a000000000000000000000000000000000000000000000000000000000815260040161092a90611f47565b60405180910390fd5b61093f848484846112a3565b50505050565b606061095082610aea565b61098f576040517f08c379a0000000000000000000000000000000000000000000000000000000008152600401610986906120fd565b60405180910390fd5b60006109996112ff565b905060008151116109b957604051806020016040528060008152506109e4565b806109c384611316565b6040516020016109d4929190612159565b6040516020818303038152906040525b915050919050565b6000600560008473ffffffffffffffffffffffffffffffffffffffff1673ffffffffffffffffffffffffffffffffffffffff16815260200190815260200160002060008373ffffffffffffffffffffffffffffffffffffffff1673ffffffffffffffffffffffffffffffffffffffff16815260200190815260200160002060009054906101000a900460ff16905092915050565b60007f01ffc9a7000000000000000000000000000000000000000000000000000000007bffffffffffffffffffffffffffffffffffffffffffffffffffffffff1916827bffffffffffffffffffffffffffffffffffffffffffffffffffffffff1916149050919050565b60008073ffffffffffffffffffffffffffffffffffffffff166002600084815260200190815260200160002060009054906101000a900473ffffffffffffffffffffffffffffffffffffffff1673ffffffffffffffffffffffffffffffffffffffff1614159050919050565b600033905090565b816004600083815260200190815260200160002060006101000a81548173ffffffffffffffffffffffffffffffffffffffff021916908373ffffffffffffffffffffffffffffffffffffffff160217905550808273ffffffffffffffffffffffffffffffffffffffff16610bd1836106d1565b73ffffffffffffffffffffffffffffffffffffffff167f8c5be1e5ebec7d5bd14f71427d1e84f3dd0314c0f7b2291e5b200ac8c7c3b92560405160405180910390a45050565b600073ffffffffffffffffffffffffffffffffffffffff168273ffffffffffffffffffffffffffffffffffffffff161415610c87576040517f08c379a0000000000000000000000000000000000000000000000000000000008152600401610c7e906121c9565b60405180910390fd5b610c9081610aea565b15610cd0576040517f08c379a0000000000000000000000000000000000000000000000000000000008152600401610cc790612235565b60405180910390fd5b610cdc60008383611496565b6001600360008473ffffffffffffffffffffffffffffffffffffffff1673ffffffffffffffffffffffffffffffffffffffff1681526020019081526020016000206000828254610d2c9190612255565b92505081905550816002600083815260200190815260200160002060006101000a81548173ffffffffffffffffffffffffffffffffffffffff021916908373ffffffffffffffffffffffffffffffffffffffff160217905550808273ffffffffffffffffffffffffffffffffffffffff16600073ffffffffffffffffffffffffffffffffffffffff167fddf252ad1be2c89b69c2b068fc378daa952ba7f163c4a11628f55a4df523b3ef60405160405180910390a4610ded6000838361149b565b5050565b6000610dfc82610aea565b610e3b576040517f08c379a0000000000000000000000000000000000000000000000000000000008152600401610e329061231d565b60405180910390fd5b6000610e46836106d1565b90508073ffffffffffffffffffffffffffffffffffffffff168473ffffffffffffffffffffffffffffffffffffffff161480610eb557508373ffffffffffffffffffffffffffffffffffffffff16610e9d84610486565b73ffffffffffffffffffffffffffffffffffffffff16145b80610ec65750610ec581856109ec565b5b91505092915050565b8273ffffffffffffffffffffffffffffffffffffffff16610eef826106d1565b73ffffffffffffffffffffffffffffffffffffffff1614610f45576040517f08c379a0000000000000000000000000000000000000000000000000000000008152600401610f3c906123af565b60405180910390fd5b600073ffffffffffffffffffffffffffffffffffffffff168273ffffffffffffffffffffffffffffffffffffffff161415610fb5576040517f08c379a0000000000000000000000000000000000000000000000000000000008152600401610fac90612441565b60405180910390fd5b610fc0838383611496565b610fcb600082610b5e565b6001600360008573ffffffffffffffffffffffffffffffffffffffff1673ffffffffffffffffffffffffffffffffffffffff168152602001908152602001600020600082825461101b9190612461565b925050819055506001600360008473ffffffffffffffffffffffffffffffffffffffff1673ffffffffffffffffffffffffffffffffffffffff16815260200190815260200160002060008282546110729190612255565b92505081905550816002600083815260200190815260200160002060006101000a81548173ffffffffffffffffffffffffffffffffffffffff021916908373ffffffffffffffffffffffffffffffffffffffff160217905550808273ffffffffffffffffffffffffffffffffffffffff168473ffffffffffffffffffffffffffffffffffffffff167fddf252ad1be2c89b69c2b068fc378daa952ba7f163c4a11628f55a4df523b3ef60405160405180910390a461113183838361149b565b505050565b8173ffffffffffffffffffffffffffffffffffffffff168373ffffffffffffffffffffffffffffffffffffffff1614156111a5576040517f08c379a000000000000000000000000000000000000000000000000000000000815260040161119c906124e1565b60405180910390fd5b80600560008573ffffffffffffffffffffffffffffffffffffffff1673ffffffffffffffffffffffffffffffffffffffff16815260200190815260200160002060008473ffffffffffffffffffffffffffffffffffffffff1673ffffffffffffffffffffffffffffffffffffffff16815260200190815260200160002060006101000a81548160ff0219169083151502179055508173ffffffffffffffffffffffffffffffffffffffff168373ffffffffffffffffffffffffffffffffffffffff167f17307eab39ab6107e8899845ad3d59bd9653f200f220920489ca2b5937696c31836040516112969190611737565b60405180910390a3505050565b6112ae848484610ecf565b6112ba848484846114a0565b6112f9576040517f08c379a00000000000000000000000000000000000000000000000000000000081526004016112f090612573565b60405180910390fd5b50505050565b606060405180602001604052806000815250905090565b6060600082141561135e576040518060400160405280600181526020017f30000000000000000000000000000000000000000000000000000000000000008152509050611491565b600082905060005b6000821461139057808061137990611e8c565b915050600a8261138991906125c2565b9150611366565b60008167ffffffffffffffff8111156113ac576113ab611a58565b5b6040519080825280601f01601f1916602001820160405280156113de5781602001600182028036833780820191505090505b5090505b6000851461148a576001826113f79190612461565b9150600a8561140691906125f3565b60306114129190612255565b7f01000000000000000000000000000000000000000000000000000000000000000281838151811061144757611446612624565b5b60200101907effffffffffffffffffffffffffffffffffffffffffffffffffffffffffffff1916908160001a905350600a8561148391906125c2565b94506113e2565b8093505050505b919050565b505050565b505050565b60006114c18473ffffffffffffffffffffffffffffffffffffffff16611660565b15611653578373ffffffffffffffffffffffffffffffffffffffff1663150b7a026114ea610b56565b8786866040518563ffffffff167c010000000000000000000000000000000000000000000000000000000002815260040161152894939291906126a8565b6020604051808303816000875af192505050801561156457506040513d601f19601f820116820180604052508101906115619190612709565b60015b6115e7573d8060008114611594576040519150601f19603f3d011682016040523d82523d6000602084013e611599565b606091505b506000815114156115df576040517f08c379a00000000000000000000000000000000000000000000000000000000081526004016115d690612573565b60405180910390fd5b805181602001fd5b63150b7a027c0100000000000000000000000000000000000000000000000000000000027bffffffffffffffffffffffffffffffffffffffffffffffffffffffff1916817bffffffffffffffffffffffffffffffffffffffffffffffffffffffff191614915050611658565b600190505b949350505050565b6000808273ffffffffffffffffffffffffffffffffffffffff163b119050919050565b6000604051905090565b600080fd5b600080fd5b60007fffffffff0000000000000000000000000000000000000000000000000000000082169050919050565b6116cc81611697565b81146116d757600080fd5b50565b6000813590506116e9816116c3565b92915050565b6000602082840312156117055761170461168d565b5b6000611713848285016116da565b91505092915050565b60008115159050919050565b6117318161171c565b82525050565b600060208201905061174c6000830184611728565b92915050565b600081519050919050565b600082825260208201905092915050565b60005b8381101561178c578082015181840152602081019050611771565b8381111561179b576000848401525b50505050565b6000601f19601f8301169050919050565b60006117bd82611752565b6117c7818561175d565b93506117d781856020860161176e565b6117e0816117a1565b840191505092915050565b6000602082019050818103600083015261180581846117b2565b905092915050565b6000819050919050565b6118208161180d565b811461182b57600080fd5b50565b60008135905061183d81611817565b92915050565b6000602082840312156118595761185861168d565b5b60006118678482850161182e565b91505092915050565b600073ffffffffffffffffffffffffffffffffffffffff82169050919050565b600061189b82611870565b9050919050565b6118ab81611890565b82525050565b60006020820190506118c660008301846118a2565b92915050565b6118d581611890565b81146118e057600080fd5b50565b6000813590506118f2816118cc565b92915050565b6000806040838503121561190f5761190e61168d565b5b600061191d858286016118e3565b925050602061192e8582860161182e565b9150509250929050565b6119418161180d565b82525050565b600060208201905061195c6000830184611938565b92915050565b60008060006060848603121561197b5761197a61168d565b5b6000611989868287016118e3565b935050602061199a868287016118e3565b92505060406119ab8682870161182e565b9150509250925092565b6000602082840312156119cb576119ca61168d565b5b60006119d9848285016118e3565b91505092915050565b6119eb8161171c565b81146119f657600080fd5b50565b600081359050611a08816119e2565b92915050565b60008060408385031215611a2557611a2461168d565b5b6000611a33858286016118e3565b9250506020611a44858286016119f9565b9150509250929050565b600080fd5b600080fd5b7f4e487b7100000000000000000000000000000000000000000000000000000000600052604160045260246000fd5b611a90826117a1565b810181811067ffffffffffffffff82111715611aaf57611aae611a58565b5b80604052505050565b6000611ac2611683565b9050611ace8282611a87565b919050565b600067ffffffffffffffff821115611aee57611aed611a58565b5b611af7826117a1565b9050602081019050919050565b82818337600083830152505050565b6000611b26611b2184611ad3565b611ab8565b905082815260208101848484011115611b4257611b41611a53565b5b611b4d848285611b04565b509392505050565b600082601f830112611b6a57611b69611a4e565b5b8135611b7a848260208601611b13565b91505092915050565b60008060008060808587031215611b9d57611b9c61168d565b5b6000611bab878288016118e3565b9450506020611bbc878288016118e3565b9350506040611bcd8782880161182e565b925050606085013567ffffffffffffffff811115611bee57611bed611692565b5b611bfa87828801611b55565b91505092959194509250565b60008060408385031215611c1d57611c1c61168d565b5b6000611c2b858286016118e3565b9250506020611c3c858286016118e3565b9150509250929050565b7f4e487b7100000000000000000000000000000000000000000000000000000000600052602260045260246000fd5b60006002820490506001821680611c8d57607f821691505b60208210811415611ca157611ca0611c46565b5b50919050565b7f4552433732313a20617070726f76656420717565727920666f72206e6f6e657860008201527f697374656e7420746f6b656e0000000000000000000000000000000000000000602082015250565b6000611d03602c8361175d565b9150611d0e82611ca7565b604082019050919050565b60006020820190508181036000830152611d3281611cf6565b9050919050565b7f4552433732313a20617070726f76616c20746f2063757272656e74206f776e6560008201527f7200000000000000000000000000000000000000000000000000000000000000602082015250565b6000611d9560218361175d565b9150611da082611d39565b604082019050919050565b60006020820190508181036000830152611dc481611d88565b9050919050565b7f4552433732313a20617070726f76652063616c6c6572206973206e6f74206f7760008201527f6e6572206e6f7220617070726f76656420666f7220616c6c0000000000000000602082015250565b6000611e2760388361175d565b9150611e3282611dcb565b604082019050919050565b60006020820190508181036000830152611e5681611e1a565b9050919050565b7f4e487b7100000000000000000000000000000000000000000000000000000000600052601160045260246000fd5b6000611e978261180d565b91507fffffffffffffffffffffffffffffffffffffffffffffffffffffffffffffffff821415611eca57611ec9611e5d565b5b600182019050919050565b7f4552433732313a207472616e736665722063616c6c6572206973206e6f74206f60008201527f776e6572206e6f7220617070726f766564000000000000000000000000000000602082015250565b6000611f3160318361175d565b9150611f3c82611ed5565b604082019050919050565b60006020820190508181036000830152611f6081611f24565b9050919050565b7f4552433732313a206f776e657220717565727920666f72206e6f6e657869737460008201527f656e7420746f6b656e0000000000000000000000000000000000000000000000602082015250565b6000611fc360298361175d565b9150611fce82611f67565b604082019050919050565b60006020820190508181036000830152611ff281611fb6565b9050919050565b7f4552433732313a2062616c616e636520717565727920666f7220746865207a6560008201527f726f206164647265737300000000000000000000000000000000000000000000602082015250565b6000612055602a8361175d565b915061206082611ff9565b604082019050919050565b6000602082019050818103600083015261208481612048565b9050919050565b7f4552433732314d657461646174613a2055524920717565727920666f72206e6f60008201527f6e6578697374656e7420746f6b656e0000000000000000000000000000000000602082015250565b60006120e7602f8361175d565b91506120f28261208b565b604082019050919050565b60006020820190508181036000830152612116816120da565b9050919050565b600081905092915050565b600061213382611752565b61213d818561211d565b935061214d81856020860161176e565b80840191505092915050565b60006121658285612128565b91506121718284612128565b91508190509392505050565b7f4552433732313a206d696e7420746f20746865207a65726f2061646472657373600082015250565b60006121b360208361175d565b91506121be8261217d565b602082019050919050565b600060208201905081810360008301526121e2816121a6565b9050919050565b7f4552433732313a20746f6b656e20616c7265616479206d696e74656400000000600082015250565b600061221f601c8361175d565b915061222a826121e9565b602082019050919050565b6000602082019050818103600083015261224e81612212565b9050919050565b60006122608261180d565b915061226b8361180d565b9250827fffffffffffffffffffffffffffffffffffffffffffffffffffffffffffffffff038211156122a05761229f611e5d565b5b828201905092915050565b7f4552433732313a206f70657261746f7220717565727920666f72206e6f6e657860008201527f697374656e7420746f6b656e0000000000000000000000000000000000000000602082015250565b6000612307602c8361175d565b9150612312826122ab565b604082019050919050565b60006020820190508181036000830152612336816122fa565b9050919050565b7f4552433732313a207472616e736665722066726f6d20696e636f72726563742060008201527f6f776e6572000000000000000000000000000000000000000000000000000000602082015250565b600061239960258361175d565b91506123a48261233d565b604082019050919050565b600060208201905081810360008301526123c88161238c565b9050919050565b7f4552433732313a207472616e7366657220746f20746865207a65726f2061646460008201527f7265737300000000000000000000000000000000000000000000000000000000602082015250565b600061242b60248361175d565b9150612436826123cf565b604082019050919050565b6000602082019050818103600083015261245a8161241e565b9050919050565b600061246c8261180d565b91506124778361180d565b92508282101561248a57612489611e5d565b5b828203905092915050565b7f4552433732313a20617070726f766520746f2063616c6c657200000000000000600082015250565b60006124cb60198361175d565b91506124d682612495565b602082019050919050565b600060208201905081810360008301526124fa816124be565b9050919050565b7f4552433732313a207472616e7366657220746f206e6f6e20455243373231526560008201527f63656976657220696d706c656d656e7465720000000000000000000000000000602082015250565b600061255d60328361175d565b915061256882612501565b604082019050919050565b6000602082019050818103600083015261258c81612550565b9050919050565b7f4e487b7100000000000000000000000000000000000000000000000000000000600052601260045260246000fd5b60006125cd8261180d565b91506125d88361180d565b9250826125e8576125e7612593565b5b828204905092915050565b60006125fe8261180d565b91506126098361180d565b92508261261957612618612593565b5b828206905092915050565b7f4e487b7100000000000000000000000000000000000000000000000000000000600052603260045260246000fd5b600081519050919050565b600082825260208201905092915050565b600061267a82612653565b612684818561265e565b935061269481856020860161176e565b61269d816117a1565b840191505092915050565b60006080820190506126bd60008301876118a2565b6126ca60208301866118a2565b6126d76040830185611938565b81810360608301526126e9818461266f565b905095945050505050565b600081519050612703816116c3565b92915050565b60006020828403121561271f5761271e61168d565b5b600061272d848285016126f4565b9150509291505056fea2646970667358221220af07df622b1ffe9d82975d144b7920788b9eabae6a993e2d8e505a8acb61c7ea64736f6c634300080b0033",
  "immutableReferences": {},
  "source": "//SPDX-License-Identifier: MIT License\r\npragma solidity  ^0.8.11;\r\n\r\nimport \"@openzeppelin/contracts/token/ERC721/ERC721.sol\";\r\n\r\ncontract DanniNFT is ERC721 {\r\n\r\n   // constructor(\"Danni NFT\",\"DNFT\") {};\r\n      constructor() ERC721 (\"DanniNFT\",\"DNFT\") {}\r\n       \r\n    \r\n        uint  _tokenId = 0;\r\n       \r\n       function mint() external returns (uint) {\r\n           _tokenId++;\r\n           _mint(msg.sender,_tokenId);\r\n           return _tokenId;\r\n\r\n       }\r\n\r\n\r\n    }\r\n\r\n\r\n\r\n",
  "sourcePath": "C:\\Users\\wdmin\\Documents\\nfts\\nft-marketplace\\contracts\\NFT.sol",
  "compiler": {
    "name": "solc",
    "version": "0.8.11+commit.d7f03943.Emscripten.clang"
  },
  "schemaVersion": "3.4.5",
  "updatedAt": "2022-03-14T00:03:11.216Z",
  "networkType": "ethereum",
  "devdoc": {
    "kind": "dev",
    "methods": {
      "approve(address,uint256)": {
        "details": "See {IERC721-approve}."
      },
      "balanceOf(address)": {
        "details": "See {IERC721-balanceOf}."
      },
      "getApproved(uint256)": {
        "details": "See {IERC721-getApproved}."
      },
      "isApprovedForAll(address,address)": {
        "details": "See {IERC721-isApprovedForAll}."
      },
      "name()": {
        "details": "See {IERC721Metadata-name}."
      },
      "ownerOf(uint256)": {
        "details": "See {IERC721-ownerOf}."
      },
      "safeTransferFrom(address,address,uint256)": {
        "details": "See {IERC721-safeTransferFrom}."
      },
      "safeTransferFrom(address,address,uint256,bytes)": {
        "details": "See {IERC721-safeTransferFrom}."
      },
      "setApprovalForAll(address,bool)": {
        "details": "See {IERC721-setApprovalForAll}."
      },
      "supportsInterface(bytes4)": {
        "details": "See {IERC165-supportsInterface}."
      },
      "symbol()": {
        "details": "See {IERC721Metadata-symbol}."
      },
      "tokenURI(uint256)": {
        "details": "See {IERC721Metadata-tokenURI}."
      },
      "transferFrom(address,address,uint256)": {
        "details": "See {IERC721-transferFrom}."
      }
    },
    "version": 1
  },
  "userdoc": {
    "kind": "user",
    "methods": {},
    "version": 1
  }
}